{
  "contractName": "Store",
  "abi": [
    {
      "payable": false,
      "stateMutability": "nonpayable",
      "type": "fallback"
    },
    {
      "anonymous": false,
      "inputs": [
        {
          "indexed": false,
          "name": "id",
          "type": "uint256"
        },
        {
          "indexed": false,
          "name": "name",
          "type": "string"
        },
        {
          "indexed": false,
          "name": "style",
          "type": "string"
        },
        {
          "indexed": false,
          "name": "intro",
          "type": "string"
        },
        {
          "indexed": false,
          "name": "rules",
          "type": "string"
        },
        {
          "indexed": false,
          "name": "price",
          "type": "uint256"
        },
        {
          "indexed": false,
          "name": "date",
          "type": "uint256"
        },
        {
          "indexed": false,
          "name": "cover",
          "type": "string"
        },
        {
          "indexed": false,
          "name": "file",
          "type": "string"
        }
      ],
      "name": "publishSuccess",
      "type": "event"
    },
    {
      "anonymous": false,
      "inputs": [
        {
          "indexed": false,
          "name": "id",
          "type": "uint256"
        },
        {
          "indexed": false,
          "name": "owner",
          "type": "address"
        },
        {
          "indexed": false,
          "name": "price",
          "type": "uint256"
        }
      ],
      "name": "purchaseSuccess",
      "type": "event"
    },
    {
      "anonymous": false,
      "inputs": [
        {
          "indexed": false,
          "name": "id",
          "type": "uint256"
        },
        {
          "indexed": false,
          "name": "owner",
          "type": "address"
        },
        {
          "indexed": false,
          "name": "score",
          "type": "uint256"
        }
      ],
      "name": "evaluateSuccess",
      "type": "event"
    },
    {
      "constant": true,
      "inputs": [],
      "name": "getPurchasedGames",
      "outputs": [
        {
          "name": "",
          "type": "uint256[]"
        }
      ],
      "payable": false,
      "stateMutability": "view",
      "type": "function"
    },
    {
      "constant": true,
      "inputs": [],
      "name": "getPublishedGames",
      "outputs": [
        {
          "name": "",
          "type": "uint256[]"
        }
      ],
      "payable": false,
      "stateMutability": "view",
      "type": "function"
    },
    {
      "constant": true,
      "inputs": [],
      "name": "getGameLength",
      "outputs": [
        {
          "name": "",
          "type": "uint256"
        }
      ],
      "payable": false,
      "stateMutability": "view",
      "type": "function"
    },
    {
      "constant": true,
      "inputs": [
        {
          "name": "id",
          "type": "uint256"
        }
      ],
      "name": "getGameInfo",
      "outputs": [
        {
          "name": "",
          "type": "address"
        },
        {
          "name": "",
          "type": "string"
        },
        {
          "name": "",
          "type": "string"
        },
        {
          "name": "",
          "type": "string"
        },
        {
          "name": "",
          "type": "string"
        },
        {
          "name": "",
          "type": "uint256"
        },
        {
          "name": "",
          "type": "uint256"
        },
        {
          "name": "",
          "type": "uint256"
        },
        {
          "name": "",
          "type": "uint256"
        },
        {
          "name": "",
          "type": "string"
        }
      ],
      "payable": false,
      "stateMutability": "view",
      "type": "function"
    },
    {
      "constant": true,
      "inputs": [
        {
          "name": "id",
          "type": "uint256"
        }
      ],
      "name": "getGameFile",
      "outputs": [
        {
          "name": "",
          "type": "string"
        }
      ],
      "payable": false,
      "stateMutability": "view",
      "type": "function"
    },
    {
      "constant": false,
      "inputs": [
        {
          "name": "name",
          "type": "string"
        },
        {
          "name": "style",
          "type": "string"
        },
        {
          "name": "intro",
          "type": "string"
        },
        {
          "name": "rules",
          "type": "string"
        },
        {
          "name": "price",
          "type": "uint256"
        },
        {
          "name": "cover",
          "type": "string"
        },
        {
          "name": "file",
          "type": "string"
        }
      ],
      "name": "publish",
      "outputs": [],
      "payable": false,
      "stateMutability": "nonpayable",
      "type": "function"
    },
    {
      "constant": false,
      "inputs": [
        {
          "name": "id",
          "type": "uint256"
        }
      ],
      "name": "purchase",
      "outputs": [],
      "payable": true,
      "stateMutability": "payable",
      "type": "function"
    },
    {
      "constant": false,
      "inputs": [
        {
          "name": "id",
          "type": "uint256"
        },
        {
          "name": "star",
          "type": "uint256"
        }
      ],
      "name": "evaluate",
      "outputs": [],
      "payable": false,
      "stateMutability": "nonpayable",
      "type": "function"
    }
  ],
  "bytecode": "0x6060604052341561000f57600080fd5b611a468061001e6000396000f30060606040526004361061008e576000357c0100000000000000000000000000000000000000000000000000000000900463ffffffff1680633c74380f1461009e57806343fb86d21461013a57806347e1d550146101635780638c35c46a146103fe578063c6acc3dc14610468578063e510f3301461061d578063efef39a114610687578063f97445a91461069f575b341561009957600080fd5b600080fd5b34156100a957600080fd5b6100bf60048080359060200190919050506106cb565b6040518080602001828103825283818151815260200191508051906020019080838360005b838110156100ff5780820151818401526020810190506100e4565b50505050905090810190601f16801561012c5780820380516001836020036101000a031916815260200191505b509250505060405180910390f35b341561014557600080fd5b61014d61085f565b6040518082815260200191505060405180910390f35b341561016e57600080fd5b610184600480803590602001909190505061086b565b604051808b73ffffffffffffffffffffffffffffffffffffffff1673ffffffffffffffffffffffffffffffffffffffff168152602001806020018060200180602001806020018a81526020018981526020018881526020018781526020018060200186810386528f818151815260200191508051906020019080838360005b8381101561021e578082015181840152602081019050610203565b50505050905090810190601f16801561024b5780820380516001836020036101000a031916815260200191505b5086810385528e818151815260200191508051906020019080838360005b83811015610284578082015181840152602081019050610269565b50505050905090810190601f1680156102b15780820380516001836020036101000a031916815260200191505b5086810384528d818151815260200191508051906020019080838360005b838110156102ea5780820151818401526020810190506102cf565b50505050905090810190601f1680156103175780820380516001836020036101000a031916815260200191505b5086810383528c818151815260200191508051906020019080838360005b83811015610350578082015181840152602081019050610335565b50505050905090810190601f16801561037d5780820380516001836020036101000a031916815260200191505b50868103825287818151815260200191508051906020019080838360005b838110156103b657808201518184015260208101905061039b565b50505050905090810190601f1680156103e35780820380516001836020036101000a031916815260200191505b509f5050505050505050505050505050505060405180910390f35b341561040957600080fd5b610411610c49565b6040518080602001828103825283818151815260200191508051906020019060200280838360005b83811015610454578082015181840152602081019050610439565b505050509050019250505060405180910390f35b341561047357600080fd5b61061b600480803590602001908201803590602001908080601f0160208091040260200160405190810160405280939291908181526020018383808284378201915050505050509190803590602001908201803590602001908080601f0160208091040260200160405190810160405280939291908181526020018383808284378201915050505050509190803590602001908201803590602001908080601f0160208091040260200160405190810160405280939291908181526020018383808284378201915050505050509190803590602001908201803590602001908080601f0160208091040260200160405190810160405280939291908181526020018383808284378201915050505050509190803590602001909190803590602001908201803590602001908080601f0160208091040260200160405190810160405280939291908181526020018383808284378201915050505050509190803590602001908201803590602001908080601f01602080910402602001604051908101604052809392919081815260200183838082843782019150505050505091905050610ce7565b005b341561062857600080fd5b6106306111fb565b6040518080602001828103825283818151815260200191508051906020019060200280838360005b83811015610673578082015181840152602081019050610658565b505050509050019250505060405180910390f35b61069d6004808035906020019091905050611299565b005b34156106aa57600080fd5b6106c9600480803590602001909190803590602001909190505061154c565b005b6106d3611738565b60008080549050831015156106e757600080fd5b6000838154811015156106f657fe5b90600052602060002090600d020190503373ffffffffffffffffffffffffffffffffffffffff168160000160009054906101000a900473ffffffffffffffffffffffffffffffffffffffff1673ffffffffffffffffffffffffffffffffffffffff1614806107af575080600b0160003373ffffffffffffffffffffffffffffffffffffffff1673ffffffffffffffffffffffffffffffffffffffff16815260200190815260200160002060009054906101000a900460ff165b15156107ba57600080fd5b80600a018054600181600116156101000203166002900480601f0160208091040260200160405190810160405280929190818152602001828054600181600116156101000203166002900480156108525780601f1061082757610100808354040283529160200191610852565b820191906000526020600020905b81548152906001019060200180831161083557829003601f168201915b5050505050915050919050565b60008080549050905090565b6000610875611738565b61087d611738565b610885611738565b61088d611738565b60008060008061089b611738565b600080805490508c1015156108af57600080fd5b60008c8154811015156108be57fe5b90600052602060002090600d020190508060000160009054906101000a900473ffffffffffffffffffffffffffffffffffffffff1681600101826002018360030184600401856005015486600601548760070154886008015489600901888054600181600116156101000203166002900480601f0160208091040260200160405190810160405280929190818152602001828054600181600116156101000203166002900480156109b05780601f10610985576101008083540402835291602001916109b0565b820191906000526020600020905b81548152906001019060200180831161099357829003601f168201915b50505050509850878054600181600116156101000203166002900480601f016020809104026020016040519081016040528092919081815260200182805460018160011615610100020316600290048015610a4c5780601f10610a2157610100808354040283529160200191610a4c565b820191906000526020600020905b815481529060010190602001808311610a2f57829003601f168201915b50505050509750868054600181600116156101000203166002900480601f016020809104026020016040519081016040528092919081815260200182805460018160011615610100020316600290048015610ae85780601f10610abd57610100808354040283529160200191610ae8565b820191906000526020600020905b815481529060010190602001808311610acb57829003601f168201915b50505050509650858054600181600116156101000203166002900480601f016020809104026020016040519081016040528092919081815260200182805460018160011615610100020316600290048015610b845780601f10610b5957610100808354040283529160200191610b84565b820191906000526020600020905b815481529060010190602001808311610b6757829003601f168201915b50505050509550808054600181600116156101000203166002900480601f016020809104026020016040519081016040528092919081815260200182805460018160011615610100020316600290048015610c205780601f10610bf557610100808354040283529160200191610c20565b820191906000526020600020905b815481529060010190602001808311610c0357829003601f168201915b505050505090509a509a509a509a509a509a509a509a509a509a50509193959799509193959799565b610c5161174c565b600160003373ffffffffffffffffffffffffffffffffffffffff1673ffffffffffffffffffffffffffffffffffffffff168152602001908152602001600020600001805480602002602001604051908101604052809291908181526020018280548015610cdd57602002820191906000526020600020905b815481526020019060010190808311610cc9575b5050505050905090565b6000610cf1611760565b6000805490509150610160604051908101604052803373ffffffffffffffffffffffffffffffffffffffff1681526020018a8152602001898152602001888152602001878152602001868152602001600081526020016000815260200142815260200185815260200184815250905060008054806001018281610d7491906117f5565b91600052602060002090600d0201600083909190915060008201518160000160006101000a81548173ffffffffffffffffffffffffffffffffffffffff021916908373ffffffffffffffffffffffffffffffffffffffff1602179055506020820151816001019080519060200190610ded929190611827565b506040820151816002019080519060200190610e0a929190611827565b506060820151816003019080519060200190610e27929190611827565b506080820151816004019080519060200190610e44929190611827565b5060a0820151816005015560c0820151816006015560e082015181600701556101008201518160080155610120820151816009019080519060200190610e8b929190611827565b5061014082015181600a019080519060200190610ea9929190611827565b50505050600160003373ffffffffffffffffffffffffffffffffffffffff1673ffffffffffffffffffffffffffffffffffffffff1681526020019081526020016000206001018054806001018281610f0191906118a7565b9160005260206000209001600084909190915055507f4e145430bc905a4b44636249c8930622c5295af65fc55826db406a9f8200c4b4828a8a8a8a8a8761010001518b8b604051808a815260200180602001806020018060200180602001898152602001888152602001806020018060200187810387528f818151815260200191508051906020019080838360005b83811015610fab578082015181840152602081019050610f90565b50505050905090810190601f168015610fd85780820380516001836020036101000a031916815260200191505b5087810386528e818151815260200191508051906020019080838360005b83811015611011578082015181840152602081019050610ff6565b50505050905090810190601f16801561103e5780820380516001836020036101000a031916815260200191505b5087810385528d818151815260200191508051906020019080838360005b8381101561107757808201518184015260208101905061105c565b50505050905090810190601f1680156110a45780820380516001836020036101000a031916815260200191505b5087810384528c818151815260200191508051906020019080838360005b838110156110dd5780820151818401526020810190506110c2565b50505050905090810190601f16801561110a5780820380516001836020036101000a031916815260200191505b50878103835289818151815260200191508051906020019080838360005b83811015611143578082015181840152602081019050611128565b50505050905090810190601f1680156111705780820380516001836020036101000a031916815260200191505b50878103825288818151815260200191508051906020019080838360005b838110156111a957808201518184015260208101905061118e565b50505050905090810190601f1680156111d65780820380516001836020036101000a031916815260200191505b509f5050505050505050505050505050505060405180910390a1505050505050505050565b61120361174c565b600160003373ffffffffffffffffffffffffffffffffffffffff1673ffffffffffffffffffffffffffffffffffffffff16815260200190815260200160002060010180548060200260200160405190810160405280929190818152602001828054801561128f57602002820191906000526020600020905b81548152602001906001019080831161127b575b5050505050905090565b60008080549050821015156112ad57600080fd5b6000828154811015156112bc57fe5b90600052602060002090600d020190503373ffffffffffffffffffffffffffffffffffffffff168160000160009054906101000a900473ffffffffffffffffffffffffffffffffffffffff1673ffffffffffffffffffffffffffffffffffffffff1614158015611378575080600b0160003373ffffffffffffffffffffffffffffffffffffffff1673ffffffffffffffffffffffffffffffffffffffff16815260200190815260200160002060009054906101000a900460ff16155b151561138357600080fd5b8060050154341015151561139657600080fd5b600160003373ffffffffffffffffffffffffffffffffffffffff1673ffffffffffffffffffffffffffffffffffffffff16815260200190815260200160002060000180548060010182816113ea91906118a7565b9160005260206000209001600084909190915055508060060160008154809291906001019190505550600181600b0160003373ffffffffffffffffffffffffffffffffffffffff1673ffffffffffffffffffffffffffffffffffffffff16815260200190815260200160002060006101000a81548160ff0219169083151502179055508060000160009054906101000a900473ffffffffffffffffffffffffffffffffffffffff1673ffffffffffffffffffffffffffffffffffffffff166108fc349081150290604051600060405180830381858888f1935050505015156114d157600080fd5b7f80dd1adb7e1bbfbc8f1d333f3ac51f8cfef8e143b8ef4211dad8fe3aad60ff1382338360050154604051808481526020018373ffffffffffffffffffffffffffffffffffffffff1673ffffffffffffffffffffffffffffffffffffffff168152602001828152602001935050505060405180910390a15050565b600080805490508310151561156057600080fd5b60008381548110151561156f57fe5b90600052602060002090600d020190503373ffffffffffffffffffffffffffffffffffffffff168160000160009054906101000a900473ffffffffffffffffffffffffffffffffffffffff1673ffffffffffffffffffffffffffffffffffffffff161415801561162a575080600b0160003373ffffffffffffffffffffffffffffffffffffffff1673ffffffffffffffffffffffffffffffffffffffff16815260200190815260200160002060009054906101000a900460ff165b8015611682575080600c0160003373ffffffffffffffffffffffffffffffffffffffff1673ffffffffffffffffffffffffffffffffffffffff16815260200190815260200160002060009054906101000a900460ff16155b151561168d57600080fd5b8160001115801561169f575060058211155b15156116aa57600080fd5b8181600701600082825401925050819055507f0188d9c8488eedcb649a5a94479208fdd077082f814ffe3df1b1b5c7c121631183338360070154604051808481526020018373ffffffffffffffffffffffffffffffffffffffff1673ffffffffffffffffffffffffffffffffffffffff168152602001828152602001935050505060405180910390a1505050565b602060405190810160405280600081525090565b602060405190810160405280600081525090565b61016060405190810160405280600073ffffffffffffffffffffffffffffffffffffffff1681526020016117926118d3565b815260200161179f6118d3565b81526020016117ac6118d3565b81526020016117b96118d3565b8152602001600081526020016000815260200160008152602001600081526020016117e26118d3565b81526020016117ef6118d3565b81525090565b81548183558181151161182257600d0281600d02836000526020600020918201910161182191906118e7565b5b505050565b828054600181600116156101000203166002900490600052602060002090601f016020900481019282601f1061186857805160ff1916838001178555611896565b82800160010185558215611896579182015b8281111561189557825182559160200191906001019061187a565b5b5090506118a391906119ad565b5090565b8154818355818115116118ce578183600052602060002091820191016118cd91906119ad565b5b505050565b602060405190810160405280600081525090565b6119aa91905b808211156119a657600080820160006101000a81549073ffffffffffffffffffffffffffffffffffffffff021916905560018201600061192d91906119d2565b60028201600061193d91906119d2565b60038201600061194d91906119d2565b60048201600061195d91906119d2565b600582016000905560068201600090556007820160009055600882016000905560098201600061198d91906119d2565b600a8201600061199d91906119d2565b50600d016118ed565b5090565b90565b6119cf91905b808211156119cb5760008160009055506001016119b3565b5090565b90565b50805460018160011615610100020316600290046000825580601f106119f85750611a17565b601f016020900490600052602060002090810190611a1691906119ad565b5b505600a165627a7a72305820992db357afe3308c4202922ac802065e8e6194434b3e30350cb5b2a268baad7d0029",
  "source": "pragma solidity ^0.4.0;\n\n// 商店合约\ncontract Store {\n\n    // 游戏\n    struct Game {\n        address owner;  // 所有者\n        string name;    // 游戏名\n        string style;   // 类型\n        string intro;   // 简介\n        string rules;   // 玩法\n        uint price;     // 价格\n        uint sales;     // 销量\n        uint score;     // 评分\n        uint date;      // 发布日期\n        string cover;   // 封面指针\n        string file;    // 文件指针\n\n        mapping(address=>bool) isPurchased; // 是否已购买\n        mapping(address=>bool) isEvaluated; // 是否已评价\n    }\n    Game[] games;\n\n    // 用户\n    struct User {\n        uint[] purchasedGames;   // 已购买的游戏\n        uint[] publishedGames;   // 已发布的游戏\n    }\n    mapping(address=>User) userPool;\n\n//////////////////////// 事件 ////////////////////\n    // 发布成功触发事件 [游戏ID, 游戏名, 类型, 简介, 玩法, 价格, 发布日期, 封面指针, 文件指针]\n    event publishSuccess(uint id, string name, string style, string intro, string rules,\n                        uint price, uint date, string cover, string file);\n    // 购买成功触发事件 [游戏ID, 用户地址, 价格]\n    event purchaseSuccess(uint id, address owner, uint price);\n    // 评价成功触发事件 [游戏ID, 用户地址, 评分]\n    event evaluateSuccess(uint id, address owner, uint score);\n//////////////////////// 事件 ////////////////////\n\n//////////////////////// 查询 ////////////////////\n    // 获取已经购买的游戏列表\n    function getPurchasedGames() public view returns (uint[]) {\n        return userPool[msg.sender].purchasedGames;\n    }\n    // 获取已经发布的游戏列表\n    function getPublishedGames() public view returns (uint[]) {\n        return userPool[msg.sender].publishedGames;\n    }\n    // 获取游戏数量\n    function getGameLength() public view returns (uint) {\n        return games.length;\n    }\n    // 获取游戏信息\n    function getGameInfo(uint id) public view returns (\n        address, string, string, string, string, uint, uint, uint, uint, string) {\n        require(id < games.length);\n        // 获取合约\n        Game storage g = games[id];\n        return (g.owner, g.name, g.style, g.intro, g.rules,\n                g.price, g.sales, g.score, g.date, g.cover);\n    }\n    // 获取游戏文件\n    function getGameFile(uint id) public view returns (string) {\n        require(id < games.length);\n        // 获取合约\n        Game storage g = games[id];\n        require(g.owner == msg.sender ||\n                g.isPurchased[msg.sender]);\n        return (g.file);\n    }\n//////////////////////// 查询 ////////////////////\n\n    // 发布游戏 区块链存储游戏指针 IPFS存储游戏\n    function publish(\n        string name, string style, string intro, string rules,\n        uint price, string cover, string file) public {\n        uint id = games.length;\n        // 创建合约\n        Game memory g = Game(msg.sender, name, style, intro, rules,\n                            price, 0, 0, now, cover, file);\n        games.push(g);\n\n        // 记录发布\n        userPool[msg.sender].publishedGames.push(id);\n\n        // 通知\n        publishSuccess(id, name, style, intro, rules, price, g.date, cover, file);\n    }\n    // 购买游戏\n    function purchase(uint id) public payable {\n        require(id < games.length);\n        // 读取合约\n        Game storage g = games[id];\n        require(g.owner != msg.sender &&\n                !g.isPurchased[msg.sender]);\n        require(msg.value >= g.price);\n\n        // 记录购买\n        userPool[msg.sender].purchasedGames.push(id);\n        g.sales++;\n        g.isPurchased[msg.sender] = true;\n        g.owner.transfer(msg.value); // 转账\n\n        // 通知\n        purchaseSuccess(id, msg.sender, g.price);\n    }\n    // 评价游戏\n    function evaluate(uint id, uint star) public {\n        require(id < games.length);\n        // 读取合约\n        Game storage g = games[id];\n        require(g.owner != msg.sender &&\n                g.isPurchased[msg.sender] &&\n                !g.isEvaluated[msg.sender]);\n        require(0 <= star && star <= 5);\n\n        // 更新评分\n        g.score += star;\n\n        // 通知\n        evaluateSuccess(id, msg.sender, g.score);\n    }\n\n    function () public {\n        revert();\n    }\n}",
  "sourcePath": "/home/littleredhat/mygame/contracts/Store.sol",
  "compiler": {
    "name": "solc",
    "version": "0.4.18+commit.9cf6e910.Emscripten.clang"
  },
  "schemaVersion": "1.0.1",
  "updatedAt": "2018-02-18T11:50:22.729Z"
}