{
  "contractName": "Store",
  "abi": [
    {
      "constant": true,
      "inputs": [
        {
          "name": "id",
          "type": "uint256"
        }
      ],
      "name": "isPurchased",
      "outputs": [
        {
          "name": "",
          "type": "bool"
        }
      ],
      "payable": false,
      "stateMutability": "view",
      "type": "function"
    },
    {
      "constant": true,
      "inputs": [
        {
          "name": "id",
          "type": "uint256"
        }
      ],
      "name": "getGameFile",
      "outputs": [
        {
          "name": "",
          "type": "string"
        }
      ],
      "payable": false,
      "stateMutability": "view",
      "type": "function"
    },
    {
      "constant": true,
      "inputs": [],
      "name": "getGameLength",
      "outputs": [
        {
          "name": "",
          "type": "uint256"
        }
      ],
      "payable": false,
      "stateMutability": "view",
      "type": "function"
    },
    {
      "constant": true,
      "inputs": [
        {
          "name": "id",
          "type": "uint256"
        }
      ],
      "name": "getGameInfo",
      "outputs": [
        {
          "name": "",
          "type": "address"
        },
        {
          "name": "",
          "type": "string"
        },
        {
          "name": "",
          "type": "string"
        },
        {
          "name": "",
          "type": "string"
        },
        {
          "name": "",
          "type": "string"
        },
        {
          "name": "",
          "type": "uint256"
        },
        {
          "name": "",
          "type": "uint256"
        },
        {
          "name": "",
          "type": "uint256"
        },
        {
          "name": "",
          "type": "uint256"
        },
        {
          "name": "",
          "type": "string"
        }
      ],
      "payable": false,
      "stateMutability": "view",
      "type": "function"
    },
    {
      "constant": true,
      "inputs": [
        {
          "name": "id",
          "type": "uint256"
        }
      ],
      "name": "isEvaluated",
      "outputs": [
        {
          "name": "",
          "type": "bool"
        }
      ],
      "payable": false,
      "stateMutability": "view",
      "type": "function"
    },
    {
      "constant": true,
      "inputs": [],
      "name": "getPurchasedGames",
      "outputs": [
        {
          "name": "",
          "type": "uint256[]"
        }
      ],
      "payable": false,
      "stateMutability": "view",
      "type": "function"
    },
    {
      "constant": false,
      "inputs": [
        {
          "name": "name",
          "type": "string"
        },
        {
          "name": "style",
          "type": "string"
        },
        {
          "name": "intro",
          "type": "string"
        },
        {
          "name": "rules",
          "type": "string"
        },
        {
          "name": "price",
          "type": "uint256"
        },
        {
          "name": "cover",
          "type": "string"
        },
        {
          "name": "file",
          "type": "string"
        }
      ],
      "name": "publish",
      "outputs": [],
      "payable": false,
      "stateMutability": "nonpayable",
      "type": "function"
    },
    {
      "constant": true,
      "inputs": [],
      "name": "getPublishedGames",
      "outputs": [
        {
          "name": "",
          "type": "uint256[]"
        }
      ],
      "payable": false,
      "stateMutability": "view",
      "type": "function"
    },
    {
      "constant": false,
      "inputs": [
        {
          "name": "id",
          "type": "uint256"
        }
      ],
      "name": "purchase",
      "outputs": [],
      "payable": true,
      "stateMutability": "payable",
      "type": "function"
    },
    {
      "constant": false,
      "inputs": [
        {
          "name": "id",
          "type": "uint256"
        },
        {
          "name": "star",
          "type": "uint256"
        }
      ],
      "name": "evaluate",
      "outputs": [],
      "payable": false,
      "stateMutability": "nonpayable",
      "type": "function"
    },
    {
      "inputs": [
        {
          "name": "_tokens",
          "type": "uint256"
        },
        {
          "name": "_tokenPrice",
          "type": "uint256"
        }
      ],
      "payable": false,
      "stateMutability": "nonpayable",
      "type": "constructor"
    },
    {
      "payable": false,
      "stateMutability": "nonpayable",
      "type": "fallback"
    },
    {
      "anonymous": false,
      "inputs": [
        {
          "indexed": false,
          "name": "id",
          "type": "uint256"
        },
        {
          "indexed": false,
          "name": "name",
          "type": "string"
        },
        {
          "indexed": false,
          "name": "style",
          "type": "string"
        },
        {
          "indexed": false,
          "name": "intro",
          "type": "string"
        },
        {
          "indexed": false,
          "name": "rules",
          "type": "string"
        },
        {
          "indexed": false,
          "name": "price",
          "type": "uint256"
        },
        {
          "indexed": false,
          "name": "date",
          "type": "uint256"
        },
        {
          "indexed": false,
          "name": "cover",
          "type": "string"
        },
        {
          "indexed": false,
          "name": "file",
          "type": "string"
        }
      ],
      "name": "publishSuccess",
      "type": "event"
    },
    {
      "anonymous": false,
      "inputs": [
        {
          "indexed": false,
          "name": "id",
          "type": "uint256"
        },
        {
          "indexed": false,
          "name": "addr",
          "type": "address"
        },
        {
          "indexed": false,
          "name": "price",
          "type": "uint256"
        }
      ],
      "name": "purchaseSuccess",
      "type": "event"
    },
    {
      "anonymous": false,
      "inputs": [
        {
          "indexed": false,
          "name": "id",
          "type": "uint256"
        },
        {
          "indexed": false,
          "name": "addr",
          "type": "address"
        },
        {
          "indexed": false,
          "name": "score",
          "type": "uint256"
        }
      ],
      "name": "evaluateSuccess",
      "type": "event"
    },
    {
      "anonymous": false,
      "inputs": [
        {
          "indexed": false,
          "name": "addr",
          "type": "address"
        },
        {
          "indexed": false,
          "name": "num",
          "type": "uint256"
        }
      ],
      "name": "rechargeSuccess",
      "type": "event"
    },
    {
      "anonymous": false,
      "inputs": [
        {
          "indexed": false,
          "name": "addr",
          "type": "address"
        },
        {
          "indexed": false,
          "name": "num",
          "type": "uint256"
        }
      ],
      "name": "redeemSuccess",
      "type": "event"
    },
    {
      "constant": true,
      "inputs": [
        {
          "name": "addr",
          "type": "address"
        }
      ],
      "name": "getBalanceInfo",
      "outputs": [
        {
          "name": "",
          "type": "uint256"
        },
        {
          "name": "",
          "type": "uint256"
        },
        {
          "name": "",
          "type": "uint256"
        }
      ],
      "payable": false,
      "stateMutability": "view",
      "type": "function"
    },
    {
      "constant": false,
      "inputs": [],
      "name": "recharge",
      "outputs": [],
      "payable": true,
      "stateMutability": "payable",
      "type": "function"
    },
    {
      "constant": false,
      "inputs": [
        {
          "name": "tokensToRedeem",
          "type": "uint256"
        }
      ],
      "name": "redeem",
      "outputs": [],
      "payable": true,
      "stateMutability": "payable",
      "type": "function"
    }
  ],
  "bytecode": "0x6060604052341561000f57600080fd5b60405160408061204b83398101604052808051906020019091908051906020019091905050336000806101000a81548173ffffffffffffffffffffffffffffffffffffffff021916908373ffffffffffffffffffffffffffffffffffffffff1602179055508160018190555081600281905550670de0b6b3a764000081026003819055505050611fa7806100a46000396000f3006060604052600436106100c5576000357c0100000000000000000000000000000000000000000000000000000000900463ffffffff1680632c9f4f62146100d557806339adac4d146101105780633c74380f1461016b57806343fb86d21461020757806347e1d550146102305780634cddae28146104cb578063550ca61d146104d55780638c35c46a14610510578063c6acc3dc1461057a578063db006a751461072f578063e510f33014610747578063efef39a1146107b1578063f97445a9146107c9575b34156100d057600080fd5b600080fd5b34156100e057600080fd5b6100f660048080359060200190919050506107f5565b604051808215151515815260200191505060405180910390f35b341561011b57600080fd5b610147600480803573ffffffffffffffffffffffffffffffffffffffff16906020019091905050610869565b60405180848152602001838152602001828152602001935050505060405180910390f35b341561017657600080fd5b61018c60048080359060200190919050506108c1565b6040518080602001828103825283818151815260200191508051906020019080838360005b838110156101cc5780820151818401526020810190506101b1565b50505050905090810190601f1680156101f95780820380516001836020036101000a031916815260200191505b509250505060405180910390f35b341561021257600080fd5b61021a610a56565b6040518082815260200191505060405180910390f35b341561023b57600080fd5b6102516004808035906020019091905050610a63565b604051808b73ffffffffffffffffffffffffffffffffffffffff1673ffffffffffffffffffffffffffffffffffffffff168152602001806020018060200180602001806020018a81526020018981526020018881526020018781526020018060200186810386528f818151815260200191508051906020019080838360005b838110156102eb5780820151818401526020810190506102d0565b50505050905090810190601f1680156103185780820380516001836020036101000a031916815260200191505b5086810385528e818151815260200191508051906020019080838360005b83811015610351578082015181840152602081019050610336565b50505050905090810190601f16801561037e5780820380516001836020036101000a031916815260200191505b5086810384528d818151815260200191508051906020019080838360005b838110156103b757808201518184015260208101905061039c565b50505050905090810190601f1680156103e45780820380516001836020036101000a031916815260200191505b5086810383528c818151815260200191508051906020019080838360005b8381101561041d578082015181840152602081019050610402565b50505050905090810190601f16801561044a5780820380516001836020036101000a031916815260200191505b50868103825287818151815260200191508051906020019080838360005b83811015610483578082015181840152602081019050610468565b50505050905090810190601f1680156104b05780820380516001836020036101000a031916815260200191505b509f5050505050505050505050505050505060405180910390f35b6104d3610e42565b005b34156104e057600080fd5b6104f66004808035906020019091905050610f30565b604051808215151515815260200191505060405180910390f35b341561051b57600080fd5b610523610fa4565b6040518080602001828103825283818151815260200191508051906020019060200280838360005b8381101561056657808201518184015260208101905061054b565b505050509050019250505060405180910390f35b341561058557600080fd5b61072d600480803590602001908201803590602001908080601f0160208091040260200160405190810160405280939291908181526020018383808284378201915050505050509190803590602001908201803590602001908080601f0160208091040260200160405190810160405280939291908181526020018383808284378201915050505050509190803590602001908201803590602001908080601f0160208091040260200160405190810160405280939291908181526020018383808284378201915050505050509190803590602001908201803590602001908080601f0160208091040260200160405190810160405280939291908181526020018383808284378201915050505050509190803590602001909190803590602001908201803590602001908080601f0160208091040260200160405190810160405280939291908181526020018383808284378201915050505050509190803590602001908201803590602001908080601f01602080910402602001604051908101604052809392919081815260200183838082843782019150505050505091905050611042565b005b6107456004808035906020019091905050611556565b005b341561075257600080fd5b61075a6116b9565b6040518080602001828103825283818151815260200191508051906020019060200280838360005b8381101561079d578082015181840152602081019050610782565b505050509050019250505060405180910390f35b6107c76004808035906020019091905050611757565b005b34156107d457600080fd5b6107f36004808035906020019091908035906020019091905050611aac565b005b600060058281548110151561080657fe5b90600052602060002090600d0201600b0160003373ffffffffffffffffffffffffffffffffffffffff1673ffffffffffffffffffffffffffffffffffffffff16815260200190815260200160002060009054906101000a900460ff169050919050565b6000806000600254600460008673ffffffffffffffffffffffffffffffffffffffff1673ffffffffffffffffffffffffffffffffffffffff168152602001908152602001600020546003549250925092509193909250565b6108c9611c99565b6000600580549050831015156108de57600080fd5b6005838154811015156108ed57fe5b90600052602060002090600d020190503373ffffffffffffffffffffffffffffffffffffffff168160000160009054906101000a900473ffffffffffffffffffffffffffffffffffffffff1673ffffffffffffffffffffffffffffffffffffffff1614806109a6575080600b0160003373ffffffffffffffffffffffffffffffffffffffff1673ffffffffffffffffffffffffffffffffffffffff16815260200190815260200160002060009054906101000a900460ff165b15156109b157600080fd5b80600a018054600181600116156101000203166002900480601f016020809104026020016040519081016040528092919081815260200182805460018160011615610100020316600290048015610a495780601f10610a1e57610100808354040283529160200191610a49565b820191906000526020600020905b815481529060010190602001808311610a2c57829003601f168201915b5050505050915050919050565b6000600580549050905090565b6000610a6d611c99565b610a75611c99565b610a7d611c99565b610a85611c99565b600080600080610a93611c99565b60006005805490508c101515610aa857600080fd5b60058c815481101515610ab757fe5b90600052602060002090600d020190508060000160009054906101000a900473ffffffffffffffffffffffffffffffffffffffff1681600101826002018360030184600401856005015486600601548760070154886008015489600901888054600181600116156101000203166002900480601f016020809104026020016040519081016040528092919081815260200182805460018160011615610100020316600290048015610ba95780601f10610b7e57610100808354040283529160200191610ba9565b820191906000526020600020905b815481529060010190602001808311610b8c57829003601f168201915b50505050509850878054600181600116156101000203166002900480601f016020809104026020016040519081016040528092919081815260200182805460018160011615610100020316600290048015610c455780601f10610c1a57610100808354040283529160200191610c45565b820191906000526020600020905b815481529060010190602001808311610c2857829003601f168201915b50505050509750868054600181600116156101000203166002900480601f016020809104026020016040519081016040528092919081815260200182805460018160011615610100020316600290048015610ce15780601f10610cb657610100808354040283529160200191610ce1565b820191906000526020600020905b815481529060010190602001808311610cc457829003601f168201915b50505050509650858054600181600116156101000203166002900480601f016020809104026020016040519081016040528092919081815260200182805460018160011615610100020316600290048015610d7d5780601f10610d5257610100808354040283529160200191610d7d565b820191906000526020600020905b815481529060010190602001808311610d6057829003601f168201915b50505050509550808054600181600116156101000203166002900480601f016020809104026020016040519081016040528092919081815260200182805460018160011615610100020316600290048015610e195780601f10610dee57610100808354040283529160200191610e19565b820191906000526020600020905b815481529060010190602001808311610dfc57829003601f168201915b505050505090509a509a509a509a509a509a509a509a509a509a50509193959799509193959799565b600060035434811515610e5157fe5b0490506002548111151515610e6557600080fd5b80600460003373ffffffffffffffffffffffffffffffffffffffff1673ffffffffffffffffffffffffffffffffffffffff16815260200190815260200160002060008282540192505081905550806002600082825403925050819055507f3decc000ec9339dfe79010d2f3383d59d8495c49e942c9381ccc690863b78fd83382604051808373ffffffffffffffffffffffffffffffffffffffff1673ffffffffffffffffffffffffffffffffffffffff1681526020018281526020019250505060405180910390a150565b6000600582815481101515610f4157fe5b90600052602060002090600d0201600c0160003373ffffffffffffffffffffffffffffffffffffffff1673ffffffffffffffffffffffffffffffffffffffff16815260200190815260200160002060009054906101000a900460ff169050919050565b610fac611cad565b600660003373ffffffffffffffffffffffffffffffffffffffff1673ffffffffffffffffffffffffffffffffffffffff16815260200190815260200160002060000180548060200260200160405190810160405280929190818152602001828054801561103857602002820191906000526020600020905b815481526020019060010190808311611024575b5050505050905090565b600061104c611cc1565b6005805490509150610160604051908101604052803373ffffffffffffffffffffffffffffffffffffffff1681526020018a81526020018981526020018881526020018781526020018681526020016000815260200160008152602001428152602001858152602001848152509050600580548060010182816110cf9190611d56565b91600052602060002090600d0201600083909190915060008201518160000160006101000a81548173ffffffffffffffffffffffffffffffffffffffff021916908373ffffffffffffffffffffffffffffffffffffffff1602179055506020820151816001019080519060200190611148929190611d88565b506040820151816002019080519060200190611165929190611d88565b506060820151816003019080519060200190611182929190611d88565b50608082015181600401908051906020019061119f929190611d88565b5060a0820151816005015560c0820151816006015560e0820151816007015561010082015181600801556101208201518160090190805190602001906111e6929190611d88565b5061014082015181600a019080519060200190611204929190611d88565b50505050600660003373ffffffffffffffffffffffffffffffffffffffff1673ffffffffffffffffffffffffffffffffffffffff168152602001908152602001600020600101805480600101828161125c9190611e08565b9160005260206000209001600084909190915055507f4e145430bc905a4b44636249c8930622c5295af65fc55826db406a9f8200c4b4828a8a8a8a8a8761010001518b8b604051808a815260200180602001806020018060200180602001898152602001888152602001806020018060200187810387528f818151815260200191508051906020019080838360005b838110156113065780820151818401526020810190506112eb565b50505050905090810190601f1680156113335780820380516001836020036101000a031916815260200191505b5087810386528e818151815260200191508051906020019080838360005b8381101561136c578082015181840152602081019050611351565b50505050905090810190601f1680156113995780820380516001836020036101000a031916815260200191505b5087810385528d818151815260200191508051906020019080838360005b838110156113d25780820151818401526020810190506113b7565b50505050905090810190601f1680156113ff5780820380516001836020036101000a031916815260200191505b5087810384528c818151815260200191508051906020019080838360005b8381101561143857808201518184015260208101905061141d565b50505050905090810190601f1680156114655780820380516001836020036101000a031916815260200191505b50878103835289818151815260200191508051906020019080838360005b8381101561149e578082015181840152602081019050611483565b50505050905090810190601f1680156114cb5780820380516001836020036101000a031916815260200191505b50878103825288818151815260200191508051906020019080838360005b838110156115045780820151818401526020810190506114e9565b50505050905090810190601f1680156115315780820380516001836020036101000a031916815260200191505b509f5050505050505050505050505050505060405180910390a1505050505050505050565b6000600460003373ffffffffffffffffffffffffffffffffffffffff1673ffffffffffffffffffffffffffffffffffffffff1681526020019081526020016000205482111515156115a657600080fd5b6003548202905081600460003373ffffffffffffffffffffffffffffffffffffffff1673ffffffffffffffffffffffffffffffffffffffff16815260200190815260200160002060008282540392505081905550816002600082825401925050819055503373ffffffffffffffffffffffffffffffffffffffff166108fc829081150290604051600060405180830381858888f19350505050151561164a57600080fd5b7fe6bcedbcb54d2249e05898d575b9a27b73039d0d924149471d0b1b5242b63f673383604051808373ffffffffffffffffffffffffffffffffffffffff1673ffffffffffffffffffffffffffffffffffffffff1681526020018281526020019250505060405180910390a15050565b6116c1611cad565b600660003373ffffffffffffffffffffffffffffffffffffffff1673ffffffffffffffffffffffffffffffffffffffff16815260200190815260200160002060010180548060200260200160405190810160405280929190818152602001828054801561174d57602002820191906000526020600020905b815481526020019060010190808311611739575b5050505050905090565b60006005805490508210151561176c57600080fd5b60058281548110151561177b57fe5b90600052602060002090600d020190503373ffffffffffffffffffffffffffffffffffffffff168160000160009054906101000a900473ffffffffffffffffffffffffffffffffffffffff1673ffffffffffffffffffffffffffffffffffffffff1614158015611837575080600b0160003373ffffffffffffffffffffffffffffffffffffffff1673ffffffffffffffffffffffffffffffffffffffff16815260200190815260200160002060009054906101000a900460ff16155b151561184257600080fd5b8060050154600460003373ffffffffffffffffffffffffffffffffffffffff1673ffffffffffffffffffffffffffffffffffffffff168152602001908152602001600020541015151561189457600080fd5b600660003373ffffffffffffffffffffffffffffffffffffffff1673ffffffffffffffffffffffffffffffffffffffff16815260200190815260200160002060000180548060010182816118e89190611e08565b9160005260206000209001600084909190915055508060060160008154809291906001019190505550600181600b0160003373ffffffffffffffffffffffffffffffffffffffff1673ffffffffffffffffffffffffffffffffffffffff16815260200190815260200160002060006101000a81548160ff0219169083151502179055508060050154600460003373ffffffffffffffffffffffffffffffffffffffff1673ffffffffffffffffffffffffffffffffffffffff168152602001908152602001600020600082825403925050819055508060050154600460008360000160009054906101000a900473ffffffffffffffffffffffffffffffffffffffff1673ffffffffffffffffffffffffffffffffffffffff1673ffffffffffffffffffffffffffffffffffffffff168152602001908152602001600020600082825401925050819055507f80dd1adb7e1bbfbc8f1d333f3ac51f8cfef8e143b8ef4211dad8fe3aad60ff1382338360050154604051808481526020018373ffffffffffffffffffffffffffffffffffffffff1673ffffffffffffffffffffffffffffffffffffffff168152602001828152602001935050505060405180910390a15050565b600060058054905083101515611ac157600080fd5b600583815481101515611ad057fe5b90600052602060002090600d020190503373ffffffffffffffffffffffffffffffffffffffff168160000160009054906101000a900473ffffffffffffffffffffffffffffffffffffffff1673ffffffffffffffffffffffffffffffffffffffff1614158015611b8b575080600b0160003373ffffffffffffffffffffffffffffffffffffffff1673ffffffffffffffffffffffffffffffffffffffff16815260200190815260200160002060009054906101000a900460ff165b8015611be3575080600c0160003373ffffffffffffffffffffffffffffffffffffffff1673ffffffffffffffffffffffffffffffffffffffff16815260200190815260200160002060009054906101000a900460ff16155b1515611bee57600080fd5b81600011158015611c00575060058211155b1515611c0b57600080fd5b8181600701600082825401925050819055507f0188d9c8488eedcb649a5a94479208fdd077082f814ffe3df1b1b5c7c121631183338360070154604051808481526020018373ffffffffffffffffffffffffffffffffffffffff1673ffffffffffffffffffffffffffffffffffffffff168152602001828152602001935050505060405180910390a1505050565b602060405190810160405280600081525090565b602060405190810160405280600081525090565b61016060405190810160405280600073ffffffffffffffffffffffffffffffffffffffff168152602001611cf3611e34565b8152602001611d00611e34565b8152602001611d0d611e34565b8152602001611d1a611e34565b815260200160008152602001600081526020016000815260200160008152602001611d43611e34565b8152602001611d50611e34565b81525090565b815481835581811511611d8357600d0281600d028360005260206000209182019101611d829190611e48565b5b505050565b828054600181600116156101000203166002900490600052602060002090601f016020900481019282601f10611dc957805160ff1916838001178555611df7565b82800160010185558215611df7579182015b82811115611df6578251825591602001919060010190611ddb565b5b509050611e049190611f0e565b5090565b815481835581811511611e2f57818360005260206000209182019101611e2e9190611f0e565b5b505050565b602060405190810160405280600081525090565b611f0b91905b80821115611f0757600080820160006101000a81549073ffffffffffffffffffffffffffffffffffffffff0219169055600182016000611e8e9190611f33565b600282016000611e9e9190611f33565b600382016000611eae9190611f33565b600482016000611ebe9190611f33565b6005820160009055600682016000905560078201600090556008820160009055600982016000611eee9190611f33565b600a82016000611efe9190611f33565b50600d01611e4e565b5090565b90565b611f3091905b80821115611f2c576000816000905550600101611f14565b5090565b90565b50805460018160011615610100020316600290046000825580601f10611f595750611f78565b601f016020900490600052602060002090810190611f779190611f0e565b5b505600a165627a7a723058205aa863635b020179ab762608756325116a703e7413a62c63ea0e3e32d584924a0029",
  "source": "pragma solidity ^0.4.0;\n\ncontract Token {\n\n    // \n    address owner;              // admin\n    uint totalTokens;    // Total no. of tokens available for this election\n    uint balanceTokens;  // Total no. of tokens still available for purchase\n    uint tokenPrice;     // Price per token\n\n    // \n    mapping(address=>uint) balances;\n\n    //  [, ]\n    event rechargeSuccess(address addr, uint num);\n    //  [, ]\n    event redeemSuccess(address addr, uint num);\n\n    // \n    function getBalanceInfo(address addr) public view returns (uint, uint, uint) {\n        return (balanceTokens, balances[addr], tokenPrice);\n    }\n\n    // \n    function recharge() public payable {\n        uint tokensToRecharge = msg.value / tokenPrice;\n        require(tokensToRecharge <= balanceTokens); // \n\n        // \n        balances[msg.sender] += tokensToRecharge;\n        balanceTokens -= tokensToRecharge;\n        rechargeSuccess(msg.sender, tokensToRecharge);\n    }\n\n    // \n    function redeem(uint tokensToRedeem) public payable {\n        require(tokensToRedeem <= balances[msg.sender]); // \n\n        // \n        uint total = tokensToRedeem * tokenPrice;\n        balances[msg.sender] -= tokensToRedeem;\n        balanceTokens += tokensToRedeem;\n        msg.sender.transfer(total);\n        redeemSuccess(msg.sender, tokensToRedeem);\n    }\n}\n\n// \ncontract Store is Token {\n\n    // deployer.deploy(Store, 100000, web3.toWei('0.1', 'ether'))\n    function Store(uint _tokens, uint _tokenPrice) public {\n        owner = msg.sender;\n        totalTokens = _tokens;\n        balanceTokens = _tokens;\n        tokenPrice = _tokenPrice * 1 ether;\n    }\n\n    // \n    struct Game {\n        address owner;  // \n        string name;    // \n        string style;   // \n        string intro;   // \n        string rules;   // \n        uint price;     // \n        uint sales;     // \n        uint score;     // \n        uint date;      // \n        string cover;   // \n        string file;    // \n\n        mapping(address=>bool) isPurchased; // \n        mapping(address=>bool) isEvaluated; // \n    }\n\n    // \n    struct User {\n        uint[] purchasedGames;   // \n        uint[] publishedGames;   // \n    }\n\n    Game[] games;\n    mapping(address=>User) userPool;\n\n    //  [ID, , , , , , , , ]\n    event publishSuccess(uint id, string name, string style, string intro, string rules,\n                        uint price, uint date, string cover, string file);\n    //  [ID, , ]\n    event purchaseSuccess(uint id, address addr, uint price);\n    //  [ID, , ]\n    event evaluateSuccess(uint id, address addr, uint score);\n\n    // \n    function getPurchasedGames() public view returns (uint[]) {\n        return userPool[msg.sender].purchasedGames;\n    }\n    // \n    function getPublishedGames() public view returns (uint[]) {\n        return userPool[msg.sender].publishedGames;\n    }\n    // \n    function getGameLength() public view returns (uint) {\n        return games.length;\n    }\n    // \n    function getGameInfo(uint id) public view returns (\n        address, string, string, string, string, uint, uint, uint, uint, string) {\n        require(id < games.length);\n        // \n        Game storage g = games[id];\n        return (g.owner, g.name, g.style, g.intro, g.rules,\n                g.price, g.sales, g.score, g.date, g.cover);\n    }\n    // \n    function getGameFile(uint id) public view returns (string) {\n        require(id < games.length);\n        // \n        Game storage g = games[id];\n        require(g.owner == msg.sender ||\n                g.isPurchased[msg.sender]);\n        return (g.file);\n    }\n    // \n    function isPurchased(uint id) public view returns (bool) {\n        return games[id].isPurchased[msg.sender];\n    }\n    // \n    function isEvaluated(uint id) public view returns (bool) {\n        return games[id].isEvaluated[msg.sender];\n    }\n\n    //   IPFS\n    function publish(\n        string name, string style, string intro, string rules,\n        uint price, string cover, string file) public {\n        uint id = games.length;\n        // \n        Game memory g = Game(msg.sender, name, style, intro, rules,\n                            price, 0, 0, now, cover, file);\n        games.push(g);\n\n        // \n        userPool[msg.sender].publishedGames.push(id);\n\n        // \n        publishSuccess(id, name, style, intro, rules, price, g.date, cover, file);\n    }\n    // \n    function purchase(uint id) public payable {\n        require(id < games.length);\n        // \n        Game storage g = games[id];\n        require(g.owner != msg.sender &&\n                !g.isPurchased[msg.sender]);\n        require(balances[msg.sender] >= g.price); // \n\n        // \n        userPool[msg.sender].purchasedGames.push(id);\n        g.sales++;\n        g.isPurchased[msg.sender] = true;\n        balances[msg.sender] -= g.price;\n        balances[g.owner] += g.price;\n\n        // \n        purchaseSuccess(id, msg.sender, g.price);\n    }\n    // \n    function evaluate(uint id, uint star) public {\n        require(id < games.length);\n        // \n        Game storage g = games[id];\n        require(g.owner != msg.sender &&\n                g.isPurchased[msg.sender] &&\n                !g.isEvaluated[msg.sender]);\n        require(0 <= star && star <= 5);\n\n        // \n        g.score += star;\n\n        // \n        evaluateSuccess(id, msg.sender, g.score);\n    }\n\n    function () public {\n        revert();\n    }\n}",
  "sourcePath": "/home/littleredhat/mygame/contracts/Store.sol",
  "compiler": {
    "name": "solc",
    "version": "0.4.18+commit.9cf6e910.Emscripten.clang"
  },
  "schemaVersion": "1.0.1",
  "updatedAt": "2018-02-19T13:45:57.779Z"
}